:020000040800F2
:1000000000280020851A0008151A00081B1A00088D
:10001000211A0008271A00082D1A00080000000005
:10002000000000000000000000000000331A00087B
:100030003F1A0008000000004B1A0008571A000879
:10004000CD1A0008CD1A0008CD1A0008CD1A0008F4
:10005000CD1A0008CD1A0008CD1A0008CD1A0008E4
:10006000CD1A0008CD1A0008CD1A0008CD1A0008D4
:10007000CD1A0008CD1A0008CD1A0008CD1A0008C4
:10008000CD1A0008CD1A0008CD1A0008CD1A0008B4
:10009000CD1A0008CD1A0008CD1A0008CD1A0008A4
:1000A000CD1A0008CD1A0008CD1A0008CD1A000894
:1000B000651A0008CD1A000800000000CD1A0008DB
:1000C000CD1A00080000000000000000CD1A000852
:1000D00000000000CD1A0008CD1A00080000000042
:1000E000CD1A0008CD1A0008CD1A00080000000043
:1000F0000000000000000000000000000000000000
:0C01000000000000000000005FF808F1A3
:1001100010B5054C237833B9044B13B10448AFF341
:1001200000800123237010BD680000200000000043
:100130001431000808B5034B1BB103490348AFF362
:10014000008008BD000000006C0000201431000891
:1001500081F0004102E000BF83F0004330B54FEA78
:1001600041044FEA430594EA050F08BF90EA020FE5
:100170001FBF54EA000C55EA020C7FEA645C7FEA78
:10018000655C00F0E2804FEA5454D4EB5555B8BF9B
:100190006D420CDD2C4480EA020281EA030382EA0C
:1001A000000083EA010180EA020281EA0303362D9E
:1001B00088BF30BD11F0004F4FEA01314FF4801C71
:1001C0004CEA113102D0404261EB410113F0004F83
:1001D0004FEA03334CEA133302D0524263EB43033A
:1001E00094EA050F00F0A780A4F10104D5F1200ED8
:1001F0000DDB02FA0EFC22FA05F2801841F1000133
:1002000003FA0EF2801843FA05F359410EE0A5F106
:1002100020050EF1200E012A03FA0EFC28BF4CF037
:10022000020C43FA05F3C01851EBE37101F00045ED
:1002300007D54FF0000EDCF1000C7EEB00006EEBFA
:100240000101B1F5801F1BD3B1F5001F0CD3490884
:100250005FEA30004FEA3C0C04F101044FEA4452DB
:1002600012F5800F80F09A80BCF1004F08BF5FEA62
:10027000500C50F1000041EB045141EA050130BD42
:100280005FEA4C0C404141EB0101013C28BFB1F554
:10029000801FE9D291F0000F04BF01460020B1FA9F
:1002A00081F308BF2033A3F10B03B3F120020CDA72
:1002B0000C3208DD02F1140CC2F10C0201FA0CF050
:1002C00021FA02F10CE002F11402D8BFC2F1200CB5
:1002D00001FA02F120FA0CFCDCBF41EA0C0190406B
:1002E000E41AA2BF01EB0451294330BD6FEA0404B4
:1002F0001F3C1CDA0C340EDC04F11404C4F120029F
:1003000020FA04F001FA02F340EA030021FA04F3B0
:1003100045EA030130BDC4F10C04C4F1200220FA07
:1003200002F001FA04F340EA0300294630BD21FA45
:1003300004F0294630BD94F0000F83F4801306BF0B
:1003400081F480110134013D4EE77FEA645C18BFFF
:100350007FEA655C29D094EA050F08BF90EA020F96
:1003600005D054EA000C04BF1946104630BD91EA8E
:10037000030F1EBF0021002030BD5FEA545C05D191
:100380004000494128BF41F0004130BD14F58004D0
:100390003CBF01F5801130BD01F0004545F0FE4144
:1003A00041F470014FF0000030BD7FEA645C1ABF79
:1003B000194610467FEA655C1CBF0B46024650EAB0
:1003C000013406BF52EA033591EA030F41F40021DC
:1003D00030BD00BF90F0000F04BF0021704730B562
:1003E0004FF4806404F132044FF000054FF0000137
:1003F00050E700BF90F0000F04BF0021704730B5F8
:100400004FF4806404F1320410F0004548BF4042CC
:100410004FF000013EE700BF42004FEAE2014FEA21
:1004200031014FEA02701FBF12F07F4393F07F4FFC
:1004300081F06051704732F07F4208BF704793F0FF
:100440007F4F04BF41F40021704730B54FF4607412
:1004500001F0004521F000411CE700BF50EA010215
:1004600008BF704730B54FF000050AE050EA0102BE
:1004700008BF704730B511F0004502D5404261EB2E
:1004800041014FF4806404F132045FEA915C3FF46F
:10049000D8AE4FF003025FEADC0C18BF03325FEA0C
:1004A000DC0C18BF033202EBDC02C2F1200300FABD
:1004B00003FC20FA02F001FA03FE40EA0E0021FAE2
:1004C00002F11444BDE600BF70B54FF0FF0C4CF4D0
:1004D000E06C1CEA11541DBF1CEA135594EA0C0F82
:1004E00095EA0C0F00F0DEF82C4481EA030621EABD
:1004F0004C5123EA4C5350EA013518BF52EA0335F8
:1005000041F4801143F4801338D0A0FB02CE4FF0A9
:100510000005E1FB02E506F00042E0FB03E54FF0D9
:100520000006E1FB03569CF0000F18BF4EF0010ED1
:10053000A4F1FF04B6F5007F64F5407404D25FEACD
:100540004E0E6D4146EB060642EAC62141EA555180
:100550004FEAC52040EA5E504FEACE2EB4F1FD0CC2
:1005600088BFBCF5E06F1ED8BEF1004F08BF5FEA40
:10057000500E50F1000041EB045170BD06F00046F2
:1005800046EA010140EA020081EA0301B4EB5C049F
:10059000C2BFD4EB0C0541EA045170BD41F4801197
:1005A0004FF0000E013C00F3AB8014F1360FDEBFBC
:1005B000002001F0004170BDC4F10004203C35DA98
:1005C0000C341BDC04F11404C4F1200500FA05F31B
:1005D00020FA04F001FA05F240EA020001F00042BC
:1005E00021F0004110EBD37021FA04F642EB060132
:1005F0005EEA430E08BF20EAD37070BDC4F10C045C
:10060000C4F1200500FA04F320FA05F001FA04F21F
:1006100040EA020001F0004110EBD37041F100010B
:100620005EEA430E08BF20EAD37070BDC4F1200516
:1006300000FA05F24EEA020E20FA04F301FA05F27E
:1006400043EA020321FA04F001F0004121FA04F226
:1006500020EA020000EBD3705EEA430E08BF20EAF6
:10066000D37070BD94F0000F0FD101F00046400030
:1006700041EB010111F4801F08BF013CF7D041EAB2
:10068000060195F0000F18BF704703F000465200B6
:1006900043EB030313F4801F08BF013DF7D043EA87
:1006A0000603704794EA0C0F0CEA135518BF95EA3D
:1006B0000C0F0CD050EA410618BF52EA4306D1D1C4
:1006C00081EA030101F000414FF0000070BD50EAE3
:1006D000410606BF1046194652EA430619D094EA6D
:1006E0000C0F02D150EA013613D195EA0C0F05D157
:1006F00052EA03361CBF104619460AD181EA0301AB
:1007000001F0004141F0FE4141F470014FF0000062
:1007100070BD41F0FE4141F4780170BD70B54FF0FD
:10072000FF0C4CF4E06C1CEA11541DBF1CEA13557D
:1007300094EA0C0F95EA0C0F00F0A7F8A4EB05045F
:1007400081EA030E52EA03354FEA013100F0888056
:100750004FEA03334FF0805545EA131343EA12631F
:100760004FEA022245EA111545EA10654FEA0026D4
:100770000EF000419D4208BF964244F1FD0404F58D
:10078000407402D25B084FEA3202B61A65EB0305E9
:100790005B084FEA32024FF480104FF4002CB6EBA6
:1007A000020E75EB030E22BFB61A754640EA0C0026
:1007B0005B084FEA3202B6EB020E75EB030E22BF66
:1007C000B61A754640EA5C005B084FEA3202B6EBA7
:1007D000020E75EB030E22BFB61A754640EA9C0066
:1007E0005B084FEA3202B6EB020E75EB030E22BF36
:1007F000B61A754640EADC0055EA060E18D04FEAF4
:10080000051545EA16754FEA06164FEAC30343EA93
:1008100052734FEAC2025FEA1C1CC0D111F4801F60
:100820000BD141EA00014FF000004FF0004CB6E759
:1008300011F4801F04BF01430020B4F1FD0C88BFF8
:10084000BCF5E06F3FF6AFAEB5EB030C04BFB6EB03
:10085000020C5FEA500C50F1000041EB045170BDF6
:100860000EF0004E4EEA113114EB5C04C2BFD4EB23
:100870000C0541EA045170BD41F480114FF0000EA7
:10088000013C90E645EA060E8DE60CEA135594EA23
:100890000C0F08BF95EA0C0F3FF43BAF94EA0C0F26
:1008A0000AD150EA01347FF434AF95EA0C0F7FF49B
:1008B00025AF104619462CE795EA0C0F06D152EAEF
:1008C00003353FF4FDAE1046194622E750EA4106D3
:1008D00018BF52EA43067FF4C5AE50EA41047FF4E4
:1008E0000DAF52EA43057FF4EBAE12E74FEA410247
:1008F00012F5001215D211D56FF47873B3EB625272
:1009000012D94FEAC12343F0004343EA505311F098
:10091000004F23FA02F018BF404270474FF000002A
:10092000704750EA013005D111F0004008BF6FF068
:10093000004070474FF00000704700BF90B583B093
:1009400000AF0023FB7147E0FA79FB792649895C07
:10095000264AD154FB79264A52F823309BB2FC79BF
:100960001946244801F09EFB03461A461E4B1A55B1
:10097000FB791D4AD25CFB791C49CB5C9A4205D1BC
:10098000FA79FB791849895C1B4AD154FB791A4AD8
:10099000D35C002B14D1FB79184A32F81330632B47
:1009A00009D8FB79154A32F81320013291B2134A63
:1009B00022F813100DE0FB79114A0121D15408E00F
:1009C000FB790E4A002122F81310FB790C4A002112
:1009D000D154FB790133FB71FB79022BB4D900BFF1
:1009E00000BF0C37BD4690BD880000208C00002061
:1009F0000000002000080140840000209400002036
:100A00009000002080B483B000AF0346FB71FB79F7
:100A1000022B01D9002307E0FB79064AD35C002BA7
:100A20000CBF01230023DBB218460C37BD4680BC47
:100A3000704700BF8400002080B483B000AF03463D
:100A4000FB71FB79022B01D9FF2307E0FB79064AF2
:100A5000D35C012B0CBF01230023DBB218460C37FB
:100A6000BD4680BC704700BF9000002080B582B0BA
:100A700000AF786000F07EF800F0B0F800F0E2F827
:100A800000F014F97B681B68B3F1804F01D1FFF7C8
:100A900055FF00BF0837BD4680BD000000000000C4
:100AA0002DE9B04384B000AFF860B9607A60F868AF
:100AB000FFF790FC04460D46B868FFF78BFC4FF03B
:100AC00000021D4BFFF74AFB02460B469046994633
:100AD0007B6801331846FFF77DFC02460B46404613
:100AE0004946FFF7F1FC02460B461046194610A393
:100AF000D3E90023FFF712FE02460B4610461946C3
:100B00004FF000020D4BFFF7DFFC02460B4620467C
:100B10002946FFF703FE02460B4610461946FFF72B
:100B2000E5FE034618461037BD46BDE8B08300BF5A
:100B30000000000080845E410000F03F00408F40D4
:100B400080B584B000AFF860B9607A60FB687A68FD
:100B5000B9681846FFF7A4FF0346044A1360044B24
:100B600000221A6000BF1037BD4680BD9C000020E7
:100B70002400002080B400AF094B1B68002B02D179
:100B8000084B01221A60064B1B68002B04DD044B46
:100B90001B68013B024A136000BFBD4680BC704722
:100BA0009C0000202400002080B584B000AFF860D5
:100BB000B9607A60074B00221A60FB687A68B968EE
:100BC0001846FFF76DFF0346034A136000BF103756
:100BD000BD4680BD28000020A000002080B400AFEA
:100BE000094B1B68002B02D1084B01221A60064BEF
:100BF0001B68002B04DD044B1B68013B024A136099
:100C000000BFBD4680BC7047A00000202800002027
:100C100080B584B000AFF860B9607A60074B0022FD
:100C20001A60FB687A68B9681846FFF739FF03460F
:100C3000034A136000BF1037BD4680BD300000205E
:100C4000A800002080B400AF094B1B68002B02D124
:100C5000084B01221A60064B1B68002B04DD044B75
:100C60001B68013B024A136000BFBD4680BC704751
:100C7000A80000203000002080B584B000AFF860EC
:100C8000B9607A60074B00221A60FB687A68B9681D
:100C90001846FFF705FF0346034A136000BF1037ED
:100CA000BD4680BD2C000020A400002080B400AF11
:100CB000094B1B68002B02D1084B01221A60064B1E
:100CC0001B68002B04DD044B1B68013B024A1360C8
:100CD00000BFBD4680BC7047A40000202C0000204F
:100CE00080B483B000AF78607B68042B18D07B6839
:100CF000042B1EDC7B68022B03D07B68032B06D001
:100D000017E00E4B1B68013B0D4A136011E00D4BC1
:100D10001B68013B0A4A13600B4B03221A7008E060
:100D20000A4B1B68013B064A1360074B04221A70EA
:100D300000BF00BF0C37BD4680BC7047500000208C
:100D4000C800002054000020AF0000205800002000
:100D500080B582B000AF786039603B68042B13D057
:100D60003B68042B15DC3B68022B03D03B68032B4C
:100D700005D00EE07B680133094A136009E07B6807
:100D80000133084A136004E07B680133064A1360AC
:100D900000BF00F00BF800BF0837BD4680BD00BFA4
:100DA00050000020540000205800002080B400AF04
:100DB0000D4B1B680D4A53610C4B5B690B4A13606A
:100DC0000B4B1B68094A1361084B1B69074A936068
:100DD000084B1B68054AD360044BDB68034A536029
:100DE00000BFBD4680BC7047500000203800002086
:100DF000540000205800002080B582B000AF786019
:100E00003960464B1B68012B7CD1454B1B78032B6B
:100E10007FD801A252F823F0290E0008310E0008F5
:100E2000450E0008F10E00083D4B01221A7070E0DB
:100E30000020FFF7E7FD0346002B65D0384B022268
:100E40001A7061E00020FFF7DDFD0346002B45D15D
:100E5000344B1B680133334A1360314B01221A7043
:100E6000304B1B68042B05DD2E4B01221A602E4BE4
:100E700005221A702B4B1B68012B0CD12B4B002227
:100E80001A702B4B00221A702A4B00221A702A4B20
:100E900000221A601CE0254B01221A70244B01220B
:100EA0001A70244B01221A701F4B04221A701D4B1A
:100EB0001B681846FFF714FF1A4B1B6800211846E1
:100EC00000F068FA1D4B1B680121184600F062FA19
:100ED0003A687968C820FFF7CFFE17E00020FFF7D7
:100EE000ABFD0346002B11D00D4B03221A700DE011
:100EF0000020FFF787FD0346002B09D1084B012294
:100F00001A7005E000BF04E000BF02E000BF00E08F
:100F100000BF00BF0837BD4680BD00BF2C000020C9
:100F200034000020CC000020AE000020AC000020E7
:100F3000AD000020AF000020C4000020C800002049
:100F400080B582B000AF786039603A4B1B68012BE6
:100F500064D1394B1B78032B67D801A252F823F0D8
:100F600021100008710F0008850F0008DB0F000832
:100F70000120FFF747FD0346002B53D02E4B0222E2
:100F80001A704FE00120FFF73DFD0346002B1AD1F8
:100F9000294B01221A70294B1B680133274A136021
:100FA000264B1B68632B02DD244B01221A60234B66
:100FB0001B680121184600F0EDF93A687968C820ED
:100FC000FFF75AFE30E00120FFF736FD0346002B05
:100FD0002AD0194B03221A7026E00120FFF712FDD8
:100FE0000346002B03D1144B01221A701DE0134B52
:100FF0001B68632B02DD114B00221A600F4B1B682C
:101000005A1C0E490A600121184600F0C3F93A68DB
:1010100079684FF47A70FFF72FFE06E000BF04E016
:1010200000BF02E000BF00E000BF00BF0837BD46C0
:1010300080BD00BF2C000020AC000020C8000020B4
:1010400080B582B000AF786039602A4B1B68012BF5
:1010500043D1294B1B78032B48D801A252F823F027
:10106000DF1000087110000885100008C710000884
:101070000220FFF7C7FC0346002B32D01E4B022292
:101080001A702EE00220FFF7BDFC0346002B10D1A2
:10109000194B01221A70194B1B68194A1268114624
:1010A0001846FFF755FE3A687968C820FFF7E4FD57
:1010B00019E00220FFF7C0FC0346002B13D00E4BB3
:1010C00003221A700FE00220FFF79CFC0346002B5E
:1010D0000BD1094B01221A7007E000BF06E000BFE8
:1010E00004E000BF02E000BF00E000BF00BF08371F
:1010F000BD4680BD2C000020AD000020C8000020AF
:10110000CC00002080B582B000AF78603960734BAE
:101110001B68012B40F0DD80714B1B78052B00F222
:10112000D28001A252F823F059110008B111000831
:101130001312000865120008C712000841110008C8
:10114000002000F019FA674B00221A60FFF72EFE0C
:10115000634B00221A70B6E0012000F00DFA614BDB
:1011600001221A60604BDB68012B0AD15E4B5B6881
:101170005D4AD3605A4B01221A705A4B00221A6002
:10118000A1E0594B1B68013B574A1360564BDB6883
:10119000013B554AD360544BDB680021184600F0F0
:1011A000F9F8514B1B680121184600F0F3F88AE06A
:1011B000022000F0E1F94C4B1B68012B12D14A4B85
:1011C0001B69012B0ED1484B5B69474A1360464BA4
:1011D0009B68454A1361424B02221A70414B002220
:1011E0001A6070E0404B1B68013B3F4A13603E4B66
:1011F0001B69013B3C4A13613B4B1B6900211846AC
:1012000000F0C8F8384B1B680121184600F0C2F8FE
:1012100059E0032000F0B0F9334B5B68012B0AD191
:101220002F4B03221A70304BDB682F4A53602D4B33
:1012300000221A6047E02C4B5B68013B2A4A53604E
:10124000294B5B69013B284A5361274B5B690021AD
:10125000184600F09FF8244B5B680121184600F007
:1012600099F830E0042000F087F91F4B9B68012BB0
:1012700012D11D4B5B69012B0ED11B4B1B691A4A06
:101280009360194B1B68184A5361154B00221A7062
:10129000144B00221A6016E0134B9B68013B124A64
:1012A0009360114B5B69013B0F4A53610E4B5B69C5
:1012B0000021184600F06EF80B4B9B680121184680
:1012C00000F068F800BF3A6879684FF47A70FFF769
:1012D0006BFC00BF0837BD4680BD00BF2800002062
:1012E000AE000020D00000203800002080B582B081
:1012F00000AF78603960254B1B78042B41D801A2E0
:1013000052F823F07513000819130008271300087A
:10131000411300085B130008002000F0A3F91B4BE9
:1013200002221A702DE01A4B1B68012B24D10120D8
:1013300000F098F93A687968FA20FFF769FC1BE039
:10134000134B1B68012B19D1022000F08BF93A686E
:101350007968FA20FFF75CFC10E00D4B1B68012B4D
:101360000ED1032000F07EF93A687968FA20FFF781
:101370004FFC05E000BF04E000BF02E000BF00E05A
:1013800000BF00BF0837BD4680BD00BFAF000020D2
:101390003000002080B483B000AF786039607B6893
:1013A000092B0ADC174A3B68002142F83310154A22
:1013B0003B68DB0013447A685A607B68092B1BDDAD
:1013C0007B68114A82FB03129210DB17D21A0D4977
:1013D0003B6841F8332079680B4B83FB01239A105B
:1013E000CB17D21A13469B0013445B00CA1A054957
:1013F0003B68DB000B445A6000BF0C37BD4680BC25
:10140000704700BFB40000206766666680B582B092
:1014100000AF78603960344B1B68012B5CD1334BD3
:101420001B68012B58D100224FF48071304800F026
:1014300050FE00224FF400712D4800F04AFE0022B9
:101440004FF480712B4800F044FE00224FF40071ED
:10145000284800F03EFE284B1B68002B02D0012BD1
:101460001AD033E001224FF48071214800F031FEA0
:1014700001224FF480711F4800F02BFE1E4B012209
:101480001A601E4B5B68184600F058F81B4BDB686F
:10149000184600F035F819E001224FF400711448A5
:1014A00000F017FE01224FF40071124800F011FE07
:1014B000124B1B68184600F041F8104B9B68184609
:1014C00000F01EF80C4B00221A6000BF3A687968E1
:1014D0006420FFF735FB03E0044B01221A6000BFD4
:1014E00000BF0837BD4680BD24000020C400002096
:1014F00000080140000C0140B0000020B4000020B2
:1015000080B582B000AF78600A4B9B7A9BB2002214
:101510001946094800F0DDFD064A7B6813441B7834
:101520009BB21946044800F0ECFD00BF0837BD46E9
:1015300080BD00BF180000200008014080B582B0C7
:1015400000AF78600A4B9B7A9BB20022194609488B
:1015500000F0BFFD064A7B6813441B789BB2194616
:10156000044800F0CEFD00BF0837BD4680BD00BF77
:101570000C000020000C014080B582B000AF786004
:101580007B68042B65D801A252F823F0A11500084E
:10159000BB150008ED1500080716000839160008ED
:1015A00000224FF480512D4800F093FD00224FF4AB
:1015B00000412B4800F08DFD4BE000224FF400610C
:1015C000264800F086FD00224FF40051244800F028
:1015D00080FD01224FF48061204800F07AFD012255
:1015E0004FF400411E4800F074FD32E001224FF438
:1015F00080411B4800F06DFD00224FF40041184867
:1016000000F067FD25E001224FF48051134800F0FF
:1016100060FD01224FF40051114800F05AFD0022F4
:101620004FF480610D4800F054FD00224FF48041DA
:101630000B4800F04EFD0CE001224FF4006107481A
:1016400000F047FD00224FF48051044800F041FDB6
:1016500000BF00BF0837BD4680BD00BF0008014085
:10166000000C014080B582B000AF78607B68032B2E
:1016700050D801A252F823F089160008A3160008DA
:10168000B9160008E716000800224FF4604123480D
:1016900000F01FFD00224FF4E051214800F019FD39
:1016A00038E04FF480611E4800F02BFD4FF40051EC
:1016B0001A4800F026FD2DE000224FF48061184802
:1016C00000F007FD00224FF40051144800F001FD26
:1016D0004FF40061124800F014FD4FF480410F48B0
:1016E00000F00FFD16E000224FF400610C4800F0FE
:1016F000F0FC00224FF48041084800F0EAFC4FF46F
:101700008051074800F0FDFC4FF40041034800F011
:10171000F8FC00BF00BF0837BD4680BD000C01408B
:101720000008014080B582B000AF00F0D1F900F0B0
:1017300029F800F0AFF800F061F8114801F026F93F
:101740000F4B5B687B600E4BDB683B6039687868E9
:10175000FFF752FB39687868FFF7F2FB3968786861
:10176000FFF76EFC39687868FFF7C0FD3968786864
:10177000FFF7C8FC39687868FFF748FEE6E700BF66
:10178000D400002080B590B000AF07F118032822E4
:101790000021184601F0B6FC3B1D00221A605A6079
:1017A0009A60DA601A610223BB610123BB621023D5
:1017B000FB6200237B6307F11803184600F0BAFCB4
:1017C0000346002B01D000F0C9F80F237B600023F3
:1017D000BB600023FB6000233B6100237B613B1D5A
:1017E0000021184600F026FF0346002B01D000F030
:1017F000B5F800BF4037BD4680BD000080B586B05B
:1018000000AF07F1080300221A605A609A60DA609C
:101810003B4600221A605A601D4B4FF080421A600E
:101820001B4B41F63F725A60194B00229A60184BCD
:101830000922DA60164B00221A61154B00229A61C8
:10184000134801F053F80346002B01D000F086F84E
:101850004FF48053BB6007F1080319460C4801F0B0
:10186000E9F90346002B01D000F078F800233B6033
:1018700000237B603B461946054801F0B5FB034653
:10188000002B01D000F06AF800BF1837BD4680BDBC
:10189000D400002080B586B000AF07F10803002215
:1018A0001A605A609A60DA60294B9B69284A43F0B3
:1018B00004039361264B9B6903F004037B607B6800
:1018C000234B9B69224A43F008039361204B9B6999
:1018D00003F008033B603B68002241F6FF711D489E
:1018E00000F0F7FB00224EF2FF311B4800F0F1FB45
:1018F00041F6FF73BB600123FB6000233B610223C1
:101900007B6107F108031946124800F051FA4EF2C4
:10191000FF33BB600123FB6000233B6102237B613B
:1019200007F1080319460C4800F042FA4FF46043EF
:10193000BB600023FB6001233B6107F108031946EC
:10194000044800F035FA00BF1837BD4680BD00BF1F
:101950000010024000080140000C014080B400AFBC
:1019600072B600BFFEE7000080B485B000AF154B33
:101970009B69144A43F001039361124B9B6903F086
:101980000103BB60BB680F4BDB690E4A43F0805319
:10199000D3610C4BDB6903F080537B607B680A4B9F
:1019A0005B68FB60FB6823F0E063FB60FB6843F06F
:1019B0008063FB60044AFB68536000BF1437BD4678
:1019C00080BC7047001002400000014080B584B028
:1019D00000AF78607B681B68B3F1804F13D10C4B6C
:1019E000DB690B4A43F00103D361094BDB6903F068
:1019F0000103FB60FB68002200211C2000F0A1F91C
:101A00001C2000F0BAF900BF1037BD4680BD00BFF2
:101A10000010024080B400AFFEE780B400AFFEE7E4
:101A200080B400AFFEE780B400AFFEE780B400AF43
:101A3000FEE780B400AF00BFBD4680BC704780B4F5
:101A400000AF00BFBD4680BC704780B400AF00BF90
:101A5000BD4680BC704780B500AF00F07FF800BF86
:101A600080BD000080B500AF024800F0DBFF00BF82
:101A700080BD00BFD400002080B400AF00BFBD46D1
:101A800080BC7047FFF7F8FF0B480C490C4A002355
:101A900002E0D458C4500433C4188C42F9D3094A24
:101AA000094C002301E013600432A242FBD301F091
:101AB00005FBFFF737FE704700000020680000209C
:101AC000583100086800002020010020FEE70000D7
:101AD00080B500AF084B1B68074A43F01003136042
:101AE000032000F023F90F2000F008F8FFF73CFF77
:101AF0000023184680BD00BF0020024080B582B0A0
:101B000000AF7860124B1A68124B1B7819464FF4DD
:101B10007A73B3FBF1F3B2FBF3F3184600F03BF931
:101B20000346002B01D001230EE07B680F2B0AD85F
:101B3000002279684FF0FF3000F003F9064A7B6815
:101B40001360002300E0012318460837BD4680BD1E
:101B50005C000020640000206000002080B400AF22
:101B6000054B1B781A46054B1B681344034A136048
:101B700000BFBD4680BC7047640000201C010020EF
:101B800080B400AF024B1B681846BD4680BC70474E
:101B90001C01002080B485B000AF78607B6803F042
:101BA0000703FB600C4BDB68BB60BA684FF6FF03B2
:101BB0001340BB60FB681A02BB68134343F0BF636A
:101BC00043F40033BB60044ABB68D36000BF1437E2
:101BD000BD4680BC704700BF00ED00E080B400AFA0
:101BE000044BDB681B0A03F007031846BD4680BCA4
:101BF000704700BF00ED00E080B483B000AF034643
:101C0000FB7197F90730002B0BDBFB7903F01F0208
:101C1000064997F907305B09012000FA02F241F802
:101C2000232000BF0C37BD4680BC704700E100E0B8
:101C300080B483B000AF03463960FB7197F9073079
:101C4000002B0ADB3B68DAB20C4997F90730120126
:101C5000D2B20B4483F800230AE03B68DAB20849A9
:101C6000FB7903F00F03043B1201D2B20B441A7646
:101C700000BF0C37BD4680BC704700BF00E100E0EC
:101C800000ED00E080B489B000AFF860B9607A6020
:101C9000FB6803F00703FB61FB69C3F10703042B37
:101CA00028BF0423BB61FB690433062B02D9FB69FF
:101CB000033B00E000237B614FF0FF32BB6902FA77
:101CC00003F3DA43BB681A407B699A404FF0FF3157
:101CD0007B6901FA03F3D9437B680B401343184631
:101CE0002437BD4680BC704780B582B000AF7860B5
:101CF0007B68013BB3F1807F01D301230FE00A4AE7
:101D00007B68013B53600F214FF0FF30FFF790FFDE
:101D1000054B00229A60044B07221A6000231846E4
:101D20000837BD4680BD00BF10E000E080B582B03E
:101D300000AF78607868FFF72DFF00BF0837BD4619
:101D400080BD80B586B000AF0346B9607A60FB7392
:101D500000237B61FFF742FF78617A68B968786990
:101D6000FFF790FF024697F90F3011461846FFF72C
:101D70005FFF00BF1837BD4680BD80B582B000AFA1
:101D80000346FB7197F907301846FFF735FF00BF90
:101D90000837BD4680BD80B582B000AF78607868F6
:101DA000FFF7A2FF034618460837BD4680BD000076
:101DB00080B48BB000AF7860396000237B62002371
:101DC0003B6248E101227B6A02FA03F3FB613B6854
:101DD0001B68FA691340BB61BA69FB699A4240F01B
:101DE00037813B685B68A34A93425ED0A14A934225
:101DF00075D8A14A934258D09F4A93426FD89F4AC0
:101E0000934252D09D4A934269D89D4A93424CD006
:101E10009B4A934263D89B4A934246D0994A934245
:101E20005DD8122B2AD8122B59D801A252F823F0D0
:101E3000AB1E0008851E0008971E0008D91E00086A
:101E4000DF1E0008DF1E0008DF1E0008DF1E00087E
:101E5000DF1E0008DF1E0008DF1E0008DF1E00086E
:101E6000DF1E0008DF1E0008DF1E0008DF1E00085E
:101E7000DF1E00088D1E0008A11E0008824A934242
:101E800013D02CE03B68DB683B6229E03B68DB68F1
:101E900004333B6224E03B68DB6808333B621FE0AD
:101EA0003B68DB680C333B621AE03B689B68002BA5
:101EB00002D104233B6213E03B689B68012B05D1F0
:101EC00008233B627B68FA691A6109E008233B62D8
:101ED0007B68FA695A6103E000233B6200E000BFBF
:101EE000BB69FF2B01D87B6801E07B6804337B6111
:101EF000BB69FF2B02D87B6A9B0002E07B6A083B30
:101F00009B003B617B691A680F213B6901FA03F36F
:101F1000DB431A40396A3B6901FA03F31A437B69D0
:101F20001A603B685B6803F08053002B00F09080E0
:101F3000564B9B69554A43F001039361534B9B6990
:101F400003F00103BB60BB68514A7B6A9B08023304
:101F500052F82330FB607B6A03F003039B000F22DF
:101F600002FA03F3DB43FA681340FB607B68494ADB
:101F700093420DD07B68484A934207D07B68474A1A
:101F8000934201D1022304E0032302E0012300E095
:101F900000237A6A02F0030292009340FA68134326
:101FA000FB603B497B6A9B080233FA6841F82320B7
:101FB0003B685B6803F48013002B06D0384B9A68AB
:101FC0003749BB6913438B6006E0354B9A68BB69A0
:101FD000DB43334913408B603B685B6803F40013B9
:101FE000002B06D02E4BDA682D49BB691343CB601A
:101FF00006E02B4BDA68BB69DB4329491340CB6011
:102000003B685B6803F40033002B06D0244B5A680E
:102010002349BB6913434B6006E0214B5A68BB69F7
:10202000DB431F4913404B603B685B6803F480331C
:10203000002B06D01A4B1A681949BB6913430B6071
:1020400006E0174B1A68BB69DB43154913400B6068
:102050007B6A01337B623B681A687B6A22FA03F36E
:10206000002B7FF4AFAE00BF00BF2C37BD4680BC55
:10207000704700BF00003210000031100000221035
:10208000000021100000121000001110001002408A
:102090000000014000080140000C01400010014018
:1020A0000004014080B485B000AF78600B467B80AF
:1020B0007B689A687B881340002B02D00123FB7356
:1020C00001E00023FB73FB7B18461437BD4680BC40
:1020D000704780B483B000AF78600B467B801346B6
:1020E0007B707B78002B03D07A887B681A6103E0D1
:1020F0007B881A047B681A6100BF0C37BD4680BC20
:10210000704780B485B000AF78600B467B807B68F9
:10211000DB68FB607A88FB6813401A04FB68D943CC
:102120007B880B401A437B681A6100BF1437BD4699
:1021300080BC704780B586B000AF78607B68002BAC
:1021400001D101236CE27B681B6803F00103002BC3
:1021500000F08780924B5B6803F00C03042B0CD0DB
:102160008F4B5B6803F00C03082B12D18C4B5B6820
:1021700003F48033B3F5803F0BD1894B1B6803F424
:102180000033002B6CD07B685B68002B68D1012387
:1021900046E27B685B68B3F5803F06D1804B1B68E5
:1021A0007F4A43F4803313602EE07B685B68002B2A
:1021B0000CD17B4B1B687A4A23F480331360784B35
:1021C0001B68774A23F4802313601DE07B685B68FB
:1021D000B3F5A02F0CD1724B1B68714A43F48023D6
:1021E00013606F4B1B686E4A43F4803313600BE03F
:1021F0006B4B1B686A4A23F480331360684B1B687F
:10220000674A23F4802313607B685B68002B13D03C
:10221000FFF7B6FC386108E0FFF7B2FC02463B6905
:10222000D31A642B01D90323FAE15D4B1B6803F435
:102230000033002BF0D014E0FFF7A2FC386108E077
:10224000FFF79EFC02463B69D31A642B01D9032396
:10225000E6E1534B1B6803F40033002BF0D100E0A0
:1022600000BF7B681B6803F00203002B63D04C4B5C
:102270005B6803F00C03002B0BD0494B5B6803F049
:102280000C03082B1CD1464B5B6803F48033002BF6
:1022900016D1434B1B6803F00203002B05D07B686B
:1022A0001B69012B01D00123BAE13D4B1B6823F0D0
:1022B000F8027B685B69DB00394913430B603AE045
:1022C0007B681B69002B20D0364B01221A60FFF778
:1022D00057FC386108E0FFF753FC02463B69D31A0C
:1022E000022B01D903239BE12D4B1B6803F0020352
:1022F000002BF0D02A4B1B6823F0F8027B685B6947
:10230000DB00274913430B6015E0264B00221A60BF
:10231000FFF736FC386108E0FFF732FC02463B6904
:10232000D31A022B01D903237AE11D4B1B6803F05A
:102330000203002BF0D17B681B6803F00803002B1D
:102340003AD07B689B69002B19D0174B01221A6089
:10235000FFF716FC386108E0FFF712FC02463B6904
:10236000D31A022B01D903235AE10D4B5B6A03F008
:102370000203002BF0D0012000F09AFA1CE00A4B77
:1023800000221A60FFF7FCFB38610FE0FFF7F8FB53
:1023900002463B69D31A022B08D9032340E100BF50
:1023A0000010024000004242800442429E4B5B6AA1
:1023B00003F00203002BE9D17B681B6803F00403E0
:1023C000002B00F0A6800023FB75974BDB6903F020
:1023D0008053002B0DD1944BDB69934A43F080531B
:1023E000D361914BDB6903F08053BB60BB68012371
:1023F000FB758E4B1B6803F48073002B18D18B4B3D
:102400001B688A4A43F480731360FFF7B9FB386195
:1024100008E0FFF7B5FB02463B69D31A642B01D9EC
:102420000323FDE0814B1B6803F48073002BF0D085
:102430007B68DB68012B06D17B4B1B6A7A4A43F031
:10244000010313622DE07B68DB68002B0CD1764B17
:102450001B6A754A23F001031362734B1B6A724AAD
:1024600023F0040313621CE07B68DB68052B0CD1AE
:102470006D4B1B6A6C4A43F0040313626A4B1B6A80
:10248000694A43F0010313620BE0674B1B6A664A1B
:1024900023F001031362644B1B6A634A23F00403B5
:1024A00013627B68DB68002B15D0FFF769FB38618E
:1024B0000AE0FFF765FB02463B69D31A41F2883216
:1024C000934201D90323ABE0574B1B6A03F002038D
:1024D000002BEED014E0FFF753FB38610AE0FFF762
:1024E0004FFB02463B69D31A41F28832934201D92D
:1024F000032395E04C4B1B6A03F00203002BEED143
:10250000FB7D012B05D1484BDB69474A23F0805303
:10251000D3617B68DB69002B00F08180424B5B68F4
:1025200003F00C03082B61D07B68DB69022B46D1DA
:102530003F4B00221A60FFF723FB386108E0FFF7EA
:102540001FFB02463B69D31A022B01D9032367E024
:10255000354B1B6803F00073002BF0D17B681B6ABE
:10256000B3F5803F08D1304B5B6823F400327B68C1
:102570009B682D4913434B602B4B5B6823F474120B
:102580007B68196A7B685B6A0B43274913434B607E
:10259000274B01221A60FFF7F3FA386108E0FFF7D2
:1025A000EFFA02463B69D31A022B01D9032337E025
:1025B0001D4B1B6803F00073002BF0D02FE01C4B69
:1025C00000221A60FFF7DCFA386108E0FFF7D8FA5A
:1025D00002463B69D31A022B01D9032320E0124B98
:1025E0001B6803F00073002BF0D118E07B68DB69F7
:1025F000012B01D1012313E00B4B5B68FB60FB68EF
:1026000003F480327B681B6A9A4206D1FB6803F4AC
:1026100070127B685B6A9A4201D0012300E00023BC
:1026200018461837BD4680BD0010024000700040BB
:102630006000424280B584B000AF786039607B684A
:10264000002B01D10123D0E06A4B1B6803F0070384
:102650003A689A4210D9674B1B6823F00702654914
:102660003B6813430B60634B1B6803F007033A6836
:102670009A4201D00123B8E07B681B6803F0020393
:10268000002B20D07B681B6803F00403002B05D0CF
:10269000594B5B68584A43F4E06353607B681B689E
:1026A00003F00803002B05D0534B5B68524A43F4F8
:1026B00060535360504B5B6823F0F0027B689B686B
:1026C0004D4913434B607B681B6803F00103002BEB
:1026D00040D07B685B68012B07D1474B1B6803F434
:1026E0000033002B15D101237FE07B685B68022B50
:1026F00007D1414B1B6803F00073002B09D1012364
:1027000073E03D4B1B6803F00203002B01D1012352
:102710006BE0394B5B6823F003027B685B683649EA
:1027200013434B60FFF72CFAF8600AE0FFF728FA32
:102730000246FB68D31A41F28832934201D903233F
:1027400053E02D4B5B6803F00C027B685B689B00D9
:102750009A42EBD1274B1B6803F007033A689A4271
:1027600010D2244B1B6823F0070222493B68134315
:102770000B60204B1B6803F007033A689A4201D0B4
:10278000012332E07B681B6803F00403002B08D0B0
:10279000194B5B6823F4E0627B68DB6816491343DE
:1027A0004B607B681B6803F00803002B09D0124BB9
:1027B0005B6823F460527B681B69DB000E4913439E
:1027C0004B6000F021F802460B4B5B681B0903F0DD
:1027D0000F030A49CB5C22FA03F3094A1360094B41
:1027E0001B681846FFF78AF9002318461037BD46C4
:1027F00080BD00BF00200240001002402C310008C4
:102800005C0000206000002080B487B000AF00238F
:10281000FB600023BB6000237B6100237B600023FF
:102820003B611E4B5B68FB60FB6803F00C03042BF1
:1028300002D0082B03D027E0194B3B6127E0FB684F
:102840009B0C03F00F03174AD35C7B60FB6803F417
:102850008033002B10D0114B5B685B0C03F001033D
:10286000114AD35CBB607B680D4A02FB03F2BB6874
:10287000B2FBF3F37B6104E07B680C4A02FB03F3D9
:102880007B617B693B6102E0054B3B6100BF3B69BB
:1028900018461C37BD4680BC704700BF0010024080
:1028A00000127A003C3100084C31000800093D005C
:1028B00080B485B000AF78600A4B1B680A4AA2FB5F
:1028C00003235B0A7A6802FB03F3FB6000BFFB682B
:1028D0005A1EFA60002BF9D100BF00BF1437BD4665
:1028E00080BC70475C000020D34D621080B582B080
:1028F00000AF78607B68002B01D1012341E07B6849
:1029000093F83D30DBB2002B06D17B68002283F8C0
:102910003C207868FFF75AF87B68022283F83D2054
:102920007B681A687B6804331946104600F06EFA1B
:102930007B68012283F846207B68012283F83E20D1
:102940007B68012283F83F207B68012283F84020C6
:102950007B68012283F841207B68012283F84220B2
:102960007B68012283F843207B68012283F844209E
:102970007B68012283F845207B68012283F83D2093
:10298000002318460837BD4680BD000080B485B0DE
:1029900000AF78607B6893F83D30DBB2012B01D04B
:1029A000012335E07B68022283F83D207B681B68A9
:1029B000DA687B681B6842F00102DA607B681B689A
:1029C000164A934209D07B681B68B3F1804F04D04C
:1029D0007B681B68124A934211D17B681B689B6815
:1029E00003F00703FB60FB68062B10D07B681B68B5
:1029F0001A687B681B6842F001021A6007E07B6876
:102A00001B681A687B681B6842F001021A60002389
:102A100018461437BD4680BC704700BF002C0140EB
:102A20000004004080B582B000AF78607B681B680E
:102A30001B6903F00203022B22D17B681B68DB6851
:102A400003F00203022B1BD17B681B686FF00202AC
:102A50001A617B6801221A777B681B689B6903F007
:102A60000303002B03D0786800F0B4F905E0786820
:102A700000F0A7F9786800F0B6F97B6800221A77B1
:102A80007B681B681B6903F00403042B22D17B685D
:102A90001B68DB6803F00403042B1BD17B681B68F5
:102AA0006FF004021A617B6802221A777B681B6848
:102AB0009B6903F44073002B03D0786800F08AF917
:102AC00005E0786800F07DF9786800F08CF97B68A3
:102AD00000221A777B681B681B6903F00803082B28
:102AE00022D17B681B68DB6803F00803082B1BD12D
:102AF0007B681B686FF008021A617B6804221A77F2
:102B00007B681B68DB6903F00303002B03D0786844
:102B100000F060F905E0786800F053F9786800F09B
:102B200062F97B6800221A777B681B681B6903F0D7
:102B30001003102B22D17B681B68DB6803F01003A5
:102B4000102B1BD17B681B686FF010021A617B6829
:102B500008221A777B681B68DB6903F44073002B3B
:102B600003D0786800F036F905E0786800F029F9BC
:102B7000786800F038F97B6800221A777B681B6858
:102B80001B6903F00103012B0ED17B681B68DB6816
:102B900003F00103012B07D17B681B686FF0010272
:102BA0001A617868FDF762FF7B681B681B6903F098
:102BB0008003802B0ED17B681B68DB6803F08003E9
:102BC000802B07D17B681B686FF080021A617868E0
:102BD00000F06BFA7B681B681B6903F04003402B15
:102BE0000ED17B681B68DB6803F04003402B07D1E4
:102BF0007B681B686FF040021A61786800F0FCF88F
:102C00007B681B681B6903F02003202B0ED17B68B7
:102C10001B68DB6803F02003202B07D17B681B684F
:102C20006FF020021A61786800F036FA00BF0837AA
:102C3000BD4680BD80B584B000AF786039600023A8
:102C4000FB737B6893F83C30012B01D10223B4E085
:102C50007B68012283F83C207B68022283F83D20B8
:102C60007B681B689B68BB60BB6823F07703BB6015
:102C7000BB6823F47F43BB607B681B68BA689A60BB
:102C80003B681B68B3F5005F3ED0B3F5005F00F210
:102C90008780B3F5805F00F08680B3F5805F7FD8D2
:102CA000702B1AD0702B7BD8602B50D0602B77D82C
:102CB000502B3CD0502B73D8402B58D0402B6FD882
:102CC000302B64D0302B6BD8202B60D0202B67D8D2
:102CD000002B5CD0102B5AD062E07B6818683B68F0
:102CE00099683B685A683B68DB6800F05EF97B686E
:102CF0001B689B68BB60BB6843F07703BB607B6865
:102D00001B68BA689A604FE07B6818683B689968EE
:102D10003B685A683B68DB6800F047F97B681B68D2
:102D20009A687B681B6842F480429A603CE07B684A
:102D300018683B6859683B68DB681A4600F0BEF8C3
:102D40007B681B685021184600F015F92CE07B6861
:102D500018683B6859683B68DB681A4600F0DCF885
:102D60007B681B686021184600F005F91CE07B6851
:102D700018683B6859683B68DB681A4600F09EF8A3
:102D80007B681B684021184600F0F5F80CE07B6872
:102D90001A683B681B681946104600F0ECF803E01F
:102DA0000123FB7300E000BF7B68012283F83D2014
:102DB0007B68002283F83C20FB7B18461037BD4619
:102DC00080BD80B483B000AF786000BF0C37BD46D3
:102DD00080BC704780B483B000AF786000BF0C3710
:102DE000BD4680BC704780B483B000AF786000BF40
:102DF0000C37BD4680BC704780B483B000AF7860AC
:102E000000BF0C37BD4680BC7047000080B485B061
:102E100000AF786039607B681B68FB607B68254A7F
:102E2000934207D07B68B3F1804F03D07B68224A7E
:102E3000934208D1FB6823F07003FB603B685B683A
:102E4000FA681343FB607B681A4A934207D07B6899
:102E5000B3F1804F03D07B68174A934208D1FB68D7
:102E600023F44073FB603B68DB68FA681343FB6044
:102E7000FB6823F080023B685B691343FB607B685F
:102E8000FA681A603B689A687B68DA623B681A687D
:102E90007B689A627B68074A934203D13B681A6950
:102EA0007B681A637B6801225A6100BF1437BD46F4
:102EB00080BC7047002C01400004004080B487B003
:102EC00000AFF860B9607A60FB681B6A7B61FB68E1
:102ED0001B6A23F00102FB681A62FB689B693B6175
:102EE0003B6923F0F0033B617B681B013A691343A4
:102EF0003B617B6923F00A037B617A69BB681343FA
:102F00007B61FB683A699A61FB687A691A6200BF63
:102F10001C37BD4680BC704780B487B000AFF860F6
:102F2000B9607A60FB681B6A7B61FB681B6A23F0EF
:102F30001002FB681A62FB689B693B613B6923F4E2
:102F400070433B617B681B033A6913433B617B69B8
:102F500023F0A0037B61BB681B017A6913437B618B
:102F6000FB683A699A61FB687A691A6200BF1C378C
:102F7000BD4680BC704780B485B000AF78603960D2
:102F80007B689B68FB60FB6823F07003FB603A681A
:102F9000FB68134343F00703FB607B68FA689A60A1
:102FA00000BF1437BD4680BC704780B487B000AF07
:102FB000F860B9607A603B60FB689B687B617B6905
:102FC00023F47F437B613B681A027B681A43BB682A
:102FD00013437A6913437B61FB687A699A6000BF87
:102FE0001C37BD4680BC704780B485B000AF7860A8
:102FF00039607B6893F83C30012B01D1022341E01A
:103000007B68012283F83C207B68022283F83D2004
:103010007B681B685B68FB607B681B689B68BB60A8
:10302000FB6823F07003FB603B681B68FA6813437E
:10303000FB607B681B68FA685A607B681B68144AEF
:10304000934209D07B681B68B3F1804F04D07B6842
:103050001B68104A93420CD1BB6823F08003BB600D
:103060003B685B68BA681343BB607B681B68BA68DF
:103070009A607B68012283F83D207B68002283F8F8
:103080003C20002318461437BD4680BC704700BF63
:10309000002C01400004004080B483B000AF786091
:1030A00000BF0C37BD4680BC704780B483B000AF12
:1030B000786000BF0C37BD4680BC704770B50026F5
:1030C0000C4D0D4C641BA410A64209D100F022F84F
:1030D00000260A4D0A4C641BA410A64205D170BDFF
:1030E00055F8043B98470136EEE755F8043B9847FE
:1030F0000136F2E750310008503100085031000825
:103100005431000803460244934200D1704703F84B
:10311000011BF9E7F8B500BFF8BC08BC9E46704734
:0C312000F8B500BFF8BC08BC9E46704724
:10312C00000000000000000001020304060708096B
:10313C0002030405060708090A0B0C0D0E0F1010EC
:04314C00010200007C
:04315000350100083D
:04315400110100085D
:10315800002000000080000000400000C0F9A4B07A
:10316800999282F88090FF00C0F9A4B0999282F8F1
:103178008090FF0001000000010000000100000035
:10318800010000000100000006000000040000002B
:103198000300000004000000030000000600000017
:1031A8000600000003000000040000000024F400F2
:0831B8001000000001000000FE
:0400000508001A8550
:00000001FF
